:100000000C9454000C947C000C947C000C947C00A8
:100010000C947C000C947C000C947C000C947C0070
:100020000C947C000C947C000C947C000C947C0060
:100030000C947C000C947C000C947C000C947C0050
:100040000C9482040C947C000C940C050C94E60433
:100050000C947C000C947C000C947C000C947C0030
:100060000C947C000C947C0000000000250028000B
:100070002B0000000000240027002A0004040404D0
:100080000404040402020202020203030303030342
:10009000010204081020408001020408102001021F
:1000A000040810207504440511241FBECFEFD8E0CA
:1000B000DEBFCDBF22E0A2EAB1E001C01D92AC36A6
:1000C000B207E1F711E0A0E0B1E0E2E5FFE002C035
:1000D00005900D92A23AB107D9F710E0C3E5D0E040
:1000E00004C02197FE010E94A405C235D107C9F7BB
:1000F0000E94DD040C949C070C940000CF93DF93C6
:1001000090E0FC01E057FF4F249184589F4FFC0181
:100110008491882319F190E0880F991FFC01EE5813
:10012000FF4FA591B491FC01E859FF4FC591D491BF
:10013000662349F06230A9F08FB7F894EC91E22B76
:10014000EC938FBF0BC09FB7F8948C91E22FE09592
:100150008E238C938881E823E8839FBFDF91CF9122
:1001600008959FB7F8943C91822F809583238C93B8
:10017000E881E22BE8839FBFF1CF8E3008F08E50EC
:100180008770806480937C00EAE7F0E0808180647F
:10019000808380917A0086FDFCCF809178009091D9
:1001A00079000895789484B5826084BD84B58160B7
:1001B00084BD85B5826085BD85B5816085BDEEE66F
:1001C000F0E0808181608083E1E8F0E0108280814E
:1001D00082608083808181608083E0E8F0E08081BC
:1001E00081608083E1EBF0E0808184608083E0EBDC
:1001F000F0E0808181608083EAE7F0E080818460C4
:10020000808380818260808380818160808380811F
:10021000806880831092C10008952FB7F894609190
:1002200064027091650280916602909167022FBF0F
:1002300008950895CF92DF92EF92FF920F931F934C
:10024000CF93DF938C01DB01D0E0C0E07A0181E045
:10025000E81AF108452BA1F0F80180819181FC0199
:10026000208131816D01FFEFCF1ADF0A6C91C80147
:10027000F9010995892B21F02196A701D601E6CF36
:10028000CE01DF91CF911F910F91FF90EF90DF9002
:10029000CF900895019709F008956F3F7F4FE1F7E0
:1002A000E2ECF1E01382128288EE93E0A0E0B0E08D
:1002B00084839583A683B7838AE091E091838083CA
:1002C00085EC90E09587848784EC90E0978786871B
:1002D00080EC90E0918B808B81EC90E0938B828B13
:1002E00082EC90E0958B848B86EC90E0978B868BEC
:1002F000118E128E138E148ECFCFFC01938D848DB0
:10030000981720F4891B990B019708952FE330E08B
:10031000291B3109820F932F911D0895FC01918DA6
:10032000828D981761F0A28DAE0FBF2FB11D5D9623
:100330008C91928D9F5F9F73928F90E008958FEFC5
:100340009FEF0895FC01918D828D981731F0828D79
:10035000E80FF11D858D90E008958FEF9FEF0895D0
:10036000FC01218D30E0205C3F4F828DA901481BAC
:100370005109CA018F739927089582EC91E00E9478
:10038000B00121E0892B09F420E0822F0895CF925B
:10039000DF92EF92FF921F93CF93DF93EC016A01FC
:1003A0007B01122F60E079E08DE390E0A7019601D8
:1003B0000E948205215031094109510956954795FE
:1003C00037952795E889F98982E08083C11481EE09
:1003D000D806E104F10421F0211580E1380798F0F6
:1003E000E889F989108260E874E88EE190E0A7015D
:1003F00096010E9482052150310941095109569503
:10040000479537952795EC85FD853083EE85FF85EB
:100410002083188EEC89FD891083EA89FB8980810D
:1004200080618083EA89FB89808188608083EA8992
:10043000FB89808180688083EA89FB8980818F7D48
:100440008083DF91CF911F91FF90EF90DF90CF904D
:100450000895FC01A48DA80FB92FB11DA35ABF4F59
:100460002C91848D90E001968F739078848FA6896B
:10047000B7892C93A089B1898C91837080648C9307
:10048000938D848D981308950288F389E02D8081DF
:100490008F7D8083F8CF0F931F93CF93DF93EC0171
:1004A00081E0888F9B8D8C8D9817B1F0062F8B8DF6
:1004B00090E001968F739078182F8C8D81131EC059
:1004C0000FB607FCFACFE889F989808185FFF5CF5F
:1004D000CE010E942902F1CFE889F989808185FF48
:1004E000E5CF9FB7F894EE89FF896083E889F989A1
:1004F00080818370806480839FBF10C0EB8DEC0F80
:10050000FD2FF11DE35AFF4F00839FB7F8941B8F17
:10051000EA89FB898081806280839FBF81E090E0CF
:10052000DF91CF911F910F910895CF93DF93EC014D
:10053000888D811104C00DC00FB607FE0DC0EA8979
:10054000FB89808185FDF8CFA889B9898C9186FFC8
:10055000F3CFDF91CF910895808185FFF0CFE889B7
:10056000F989808185FFEBCFCE010E942902E7CF78
:1005700080E090E0892B21F00E94BD01811101C033
:1005800008950E940000FCCF0F931F93CF93DF9339
:10059000EC018B016F5F7F4F888199810E94CF06AC
:1005A000009751F0998388831B830A8381E0DF9150
:1005B000CF911F910F91089580E0F9CFCF93DF93F2
:1005C000EC0128813981232B29F02A813B812617D0
:1005D000370770F4CE010E94C402882351F08C8149
:1005E0009D81892B49F4E881F981108281E001C065
:1005F00081E0DF91CF91089581E0FBCFCF93DF932E
:10060000EC0188819981009711F00E9446061982B9
:1006100018821D821C821B821A82DF91CF9108955D
:10062000EF92FF920F931F93CF93DF93EC017B0127
:100630008A01BA010E94DE02882379F01D830C83AF
:10064000B701888199810E949507CE01DF91CF91F2
:100650001F910F91FF90EF900895CE010E94FE022E
:10066000F4CFFC0180819181009711F00E94460631
:100670000895FC0111821082138212821582148265
:100680006115710551F0FB0101900020E9F73197E8
:10069000AF01461B570B0E94100308950F931F9341
:1006A000CF93DF93EC018B01019751F0CD2B19F41F
:1006B0000F3F1F4F09F1DF91CF911F910F910895C7
:1006C0006F3F7F4F99F768E171E08AEA91E00E94FD
:1006D00039036BE171E080EB91E00E9439036EE138
:1006E00071E086EB91E00E94390361E271E08CEBEE
:1006F00091E00E943903DACFC2ECD1E081E0CA3A3E
:10070000D807C9F22697CE010E943103F7CFDC014A
:10071000ED91FC910280F381E02D42E050E064E233
:1007200071E0099508956115710581F0FB01019053
:100730000020E9F73197AF01461B570BDC01ED9123
:10074000FC910280F381E02D0995089590E080E00E
:1007500008950F931F93CF93DF93EC010E949303AF
:100760008C01CE010E948703800F911FDF91CF91F2
:100770001F910F91089526E040E052EC61E070E097
:1007800082EC91E00E94C70162E08EE00E947E0050
:1007900062E08FE00E947E0062E080E10E947E00C5
:1007A00062E081E10E947E0067E271E082EC91E00C
:1007B0000E94A9030E940D016093A2017093A301FE
:1007C0008093A4019093A5010E940D016093A6015E
:1007D0007093A7018093A8019093A901089561E304
:1007E00071E082EC91E00E94A903089581E10E94EA
:1007F000BD00883C91050CF008950E94EF03FCCFEA
:1008000066E471E082EC91E00E94A903089580E122
:100810000E94BD00883C91050CF008950E940004E0
:10082000FCCF6CE571E082EC91E00E94A903089591
:100830008FE00E94BD00883C91050CF008950E9455
:100840001104FCCF60E771E082EC91E00E94A90303
:1008500008958EE00E94BD00883C91050CF008953B
:100860000E942204FCCF0E9429040E9418040E94C6
:1008700007040E94F60308950F931F930E940D0131
:100880006093A6017093A7018093A8019093A9019A
:100890000091A2011091A3012091A4013091A50122
:1008A000601B710B820B930B643F714081059105B6
:1008B00018F41F910F91089564E871E082EC91E0C3
:1008C0000E94A9038091A6019091A701A091A8017F
:1008D000B091A9018093A2019093A301A093A401D8
:1008E000B093A5010E943304E4CF6FEF7FEF81E066
:1008F00090E00E944A016FEF7FEF81E090E00E945C
:100900004E0308951F920F920FB60F9211240F936A
:100910001F932F933F934F935F936F937F938F9387
:100920009F93AF93BF930091640210916502209151
:1009300066023091670290916302B901A8014F5F8E
:100940005F4F6F4F7F4F83E0890F8D3740F086E810
:10095000890FB901A8014E5F5F4F6F4F7F4F8093A2
:100960006302409364025093650260936602709341
:10097000670280915F0290916002A0916102B09144
:1009800062020196A11DB11D80935F0290936002E7
:10099000A0936102B0936202BF91AF919F918F913A
:1009A0007F916F915F914F913F912F911F910F9187
:1009B0000F900FBE0F901F9018950E94D2000E94BA
:1009C000BB030E943C040E94B802FBCF1F920F920F
:1009D0000FB60F9211242F933F934F935F936F9312
:1009E0007F938F939F93AF93BF93EF93FF9382EC8B
:1009F00091E00E942902FF91EF91BF91AF919F91E9
:100A00008F917F916F915F914F913F912F910F90B7
:100A10000FBE0F901F9018951F920F920FB60F9256
:100A200011242F938F939F93AF93BF93EF93FF93D3
:100A3000E091D201F091D301808182FD14C0E2ECFB
:100A4000F1E0A689B7892C91818D8F5F8F73928D8C
:100A5000891771F0DF01E18DF0E0EE53FE4F258F35
:100A600059968C9305C0E091D801F091D90180810D
:100A7000FF91EF91BF91AF919F918F912F910F9027
:100A80000FBE0F901F9018956FEF7FEF90E080E002
:100A90000E944E0308952F923F924F925F926F9261
:100AA0007F928F929F92AF92BF92CF92DF92EF92FE
:100AB000FF920F931F93CF93DF93CDB7DEB7CA1B7F
:100AC000DB0B0FB6F894DEBF0FBECDBF09942A88AA
:100AD000398848885F846E847D848C849B84AA8452
:100AE000B984C884DF80EE80FD800C811B81AA81DF
:100AF000B981CE0FD11D0FB6F894DEBF0FBECDBFAA
:100B0000ED010895A1E21A2EAA1BBB1BFD010DC029
:100B1000AA1FBB1FEE1FFF1FA217B307E407F507AD
:100B200020F0A21BB30BE40BF50B661F771F881F89
:100B3000991F1A9469F760957095809590959B011F
:100B4000AC01BD01CF010895EE0FFF1F0590F49198
:100B5000E02D09940F931F93CF93DF93823091057B
:100B600010F482E090E0E0916A02F0916B0230E0D4
:100B700020E0B0E0A0E0309799F42115310509F4A8
:100B80004AC0281B390B24303105D8F58A819B8156
:100B90006115710589F1FB0193838283FE0111C008
:100BA000408151810281138148175907E0F04817AD
:100BB000590799F4109761F012960C9312971396B7
:100BC0001C933296CF01DF91CF911F910F91089521
:100BD00000936A0210936B02F4CF2115310551F096
:100BE0004217530738F0A901DB019A01BD01DF016B
:100BF000F801C1CFEF01F9CF90936B0280936A02A5
:100C0000CDCFFE01E20FF31F819391932250310962
:100C100039832883D7CF2091680230916902232B32
:100C200041F4209102013091030130936902209335
:100C3000680220910001309101012115310541F434
:100C40002DB73EB74091040150910501241B350B8F
:100C5000E0916802F0916902E217F307A0F42E1BFD
:100C60003F0B2817390778F0AC014E5F5F4F241710
:100C7000350748F04E0F5F1F50936902409368029A
:100C8000819391939FCFF0E0E0E09CCFCF93DF93EF
:100C90000097E9F0FC01329713821282A0916A0258
:100CA000B0916B02ED0130E020E01097A1F42081BB
:100CB0003181820F931F20916802309169022817B9
:100CC000390709F061C0F0936902E0936802DF918F
:100CD000CF910895EA01CE17DF07E8F54A815B81DD
:100CE0009E0141155105B1F7E901FB83EA83499162
:100CF0005991C40FD51FEC17FD0761F480819181D4
:100D00000296840F951FE9019983888382819381DC
:100D10009B838A83F0E0E0E012968D919C9113977B
:100D20000097B9F52D913C911197CD010296820F54
:100D3000931F20916802309169022817390739F60C
:100D4000309751F510926B0210926A02B0936902CB
:100D5000A0936802BCCFD383C28340815181840FAA
:100D6000951FC817D90761F44E5F5F4F888199813D
:100D7000480F591F518340838A819B8193838283CB
:100D80002115310509F0B0CFF0936B02E0936A02B0
:100D90009ECFFD01DC01C0CF13821282D7CFB0E01D
:100DA000A0E0E5EDF6E00C944D058C01009751F4C0
:100DB000CB010E94AA058C01C801CDB7DEB7E0E1E6
:100DC0000C946905FC01E60FF71F9C0122503109C4
:100DD000E217F30708F49DC0D901CD91DC9111977A
:100DE000C617D70798F0C530D10530F3CE01049768
:100DF0008617970708F3C61BD70B2297C193D19389
:100E00006D937C93CF010E944606D6CF5B01AC1A4E
:100E1000BD0A4C018C0E9D1EA0916A02B0916B021E
:100E2000512C412CF12CE12C109731F58091680266
:100E3000909169028815990509F05CC0461657061D
:100E400008F058C08091000190910101009741F491
:100E50008DB79EB74091040150910501841B950BFD
:100E6000E817F90708F055C0F0936902E0936802AB
:100E7000F90171836083A0CF8D919C911197129697
:100E80006C90129713967C901397A815B90559F595
:100E90006C0142E0C40ED11CCA14DB0420F1AC0189
:100EA0004A195B09DA011296159780F06282738203
:100EB00051834083D9016D937C93E114F10471F067
:100EC000D7011396FC93EE93129776CF22968C0F50
:100ED0009D1FF90191838083F301EFCFF0936B02A3
:100EE000E0936A0269CF4816590608F42C017D0187
:100EF000D3019ACFCB010E94AA057C01009749F04B
:100F0000AE01B8010E948C07C8010E944606870105
:100F100053CF10E000E050CFFB01DC0102C0019094
:100F20000D9241505040D8F70895FB01DC0101902B
:100F30000D920020E1F7089510E0C3E5D0E004C071
:100F4000FE010E94A4052196C435D107C9F7F89483
:020F5000FFCFD1
:100F520000006C028000000000004B021A017D01BB
:100F62009502B0018E01A2014130004131004132AF
:100F7200004133000D0A00537461727420757021B0
:100F820000427574746F6E20666F757220707265A0
:100F9200737365642100427574746F6E2074687295
:100FA200656520707265737365642100427574749F
:100FB2006F6E2074776F20707265737365642100A1
:100FC200427574746F6E206F6E65207072657373F4
:100FD200656421002E202E202E20616E6F746865BC
:100FE20072206C6F6F702070617373656420627918
:020FF2002100DC
:00000001FF
