:100000000C9453000C947B000C947B000C947B00AC
:100010000C947B000C947B000C947B000C947B0074
:100020000C947B000C947B000C947B000C947B0064
:100030000C947B000C947B000C947B000C947B0054
:100040000C945E030C947B000C94EF030C94C90396
:100050000C947B000C947B000C947B000C947B0034
:100060000C947B000C947B0000000000250028000D
:100070002B0000000000240027002A0004040404D0
:100080000404040402020202020203030303030342
:10009000010204081020408001020408102001021F
:1000A00004081020C20311241FBECFEFD8E0DEBF2A
:1000B000CDBF11E0A0E0B1E0E2EAF8E002C00590B7
:1000C0000D92AE33B107D9F721E0AEE3B1E001C044
:1000D0001D92AC3EB207E1F710E0C3E5D0E004C0EA
:1000E0002197FE010E944904C235D107C9F70E9439
:1000F000B9030C944F040C940000CF93DF9390E06D
:10010000FC01E057FF4F249184589F4FFC018491DC
:10011000882319F190E0880F991FFC01EE58FF4FDA
:10012000A591B491FC01E859FF4FC591D491662384
:1001300049F06230A9F08FB7F894EC91E22BEC9380
:100140008FBF0BC09FB7F8948C91E22FE0958E2360
:100150008C938881E823E8839FBFDF91CF91089536
:100160009FB7F8943C91822F809583238C93E881EC
:10017000E22BE8839FBFF1CF8E3008F08E5087705E
:10018000806480937C00EAE7F0E080818064808373
:1001900080917A0086FDFCCF809178009091790063
:1001A0000895789484B5826084BD84B5816084BDEF
:1001B00085B5826085BD85B5816085BDEEE6F0E0E0
:1001C000808181608083E1E8F0E01082808182603C
:1001D0008083808181608083E0E8F0E080818160BD
:1001E0008083E1EBF0E0808184608083E0EBF0E0ED
:1001F000808181608083EAE7F0E080818460808391
:10020000808182608083808181608083808180683A
:1002100080831092C10008952FB7F8946091E8018F
:100220007091E9018091EA019091EB012FBF08954F
:100230000895CF92DF92EF92FF920F931F93CF9387
:10024000DF938C01DB01D0E0C0E07A0181E0E81AA5
:10025000F108452BA1F0F80180819181FC012081FA
:1002600031816D01FFEFCF1ADF0A6C91C801F901EE
:100270000995892B21F02196A701D601E6CFCE0161
:10028000DF91CF911F910F91FF90EF90DF90CF9072
:100290000895019709F008956F3F7F4FE1F7E6E475
:1002A000F1E01382128288EE93E0A0E0B0E0848354
:1002B0009583A683B78384E091E09183808385EC66
:1002C00090E09587848784EC90E09787868780EC20
:1002D00090E0918B808B81EC90E0938B828B82EC11
:1002E00090E0958B848B86EC90E0978B868B118EBB
:1002F000128E138E148ECFCFFC01938D848D9817A0
:1003000020F4891B990B019708952FE330E0291BF6
:100310003109820F932F911D0895FC01918D828DDB
:10032000981761F0A28DAE0FBF2FB11D5D968C9115
:10033000928D9F5F9F73928F90E008958FEF9FEF54
:100340000895FC01918D828D981731F0828DE80F10
:10035000F11D858D90E008958FEF9FEF0895FC01CA
:10036000218D30E0205C3F4F828DA901481B51094F
:10037000CA018F739927089586E491E00E94AF0126
:1003800021E0892B09F420E0822F0895CF92DF929B
:10039000EF92FF921F93CF93DF93EC016A017B01F1
:1003A000122F60E079E08DE390E0A70196010E94B2
:1003B0002704215031094109510956954795379530
:1003C0002795E889F98982E08083C11481EED806F7
:1003D000E104F10421F0211580E1380798F0E88963
:1003E000F989108260E874E88EE190E0A701960137
:1003F0000E9427042150310941095109569547951A
:1004000037952795EC85FD853083EE85FF85208324
:10041000188EEC89FD891083EA89FB8980818061CF
:100420008083EA89FB89808188608083EA89FB89EF
:10043000808180688083EA89FB8980818F7D8083C9
:10044000DF91CF911F91FF90EF90DF90CF900895B3
:10045000FC01A48DA80FB92FB11DA35ABF4F2C9139
:10046000848D90E001968F739078848FA689B789E8
:100470002C93A089B1898C91837080648C93938D27
:10048000848D981308950288F389E02D80818F7DF3
:100490008083F8CF0F931F93CF93DF93EC0181E01C
:1004A000888F9B8D8C8D9817B1F0062F8B8D90E0E7
:1004B00001968F739078182F8C8D81131EC00FB604
:1004C00007FCFACFE889F989808185FFF5CFCE0155
:1004D0000E942802F1CFE889F989808185FFE5CF64
:1004E0009FB7F894EE89FF896083E889F989808154
:1004F0008370806480839FBF10C0EB8DEC0FFD2F55
:10050000F11DE35AFF4F00839FB7F8941B8FEA89D0
:10051000FB898081806280839FBF81E090E0DF91D2
:10052000CF911F910F910895CF93DF93EC01888DA8
:10053000811104C00DC00FB607FE0DC0EA89FB890A
:10054000808185FDF8CFA889B9898C9186FFF3CF8A
:10055000DF91CF910895808185FFF0CFE889F989F7
:10056000808185FFEBCFCE010E942802E7CF80E09B
:1005700090E0892B21F00E94BC01811101C00895F7
:100580000E940000FCCF6115710581F0FB01019014
:100590000020E9F73197AF01461B570BDC01ED91C5
:1005A000FC910280F381E02D0995089590E080E0B0
:1005B0000895DC01ED91FC910280F381E02D42E091
:1005C00050E062E171E0099508950F931F93CF9376
:1005D000DF93EC010E94C3028C01CE010E94D9027C
:1005E000800F911FDF91CF911F910F91089540913E
:1005F0003E0150913F016091400170914101809115
:10060000420190914301A0914401B0914501841BA6
:10061000950BA60BB70B813D9740A105B105B8F02E
:100620000E940C0160933E0170933F018093400152
:10063000909341018EE00E94BC00883C9105BCF67D
:1006400065E171E086E491E00E94E502D0CF40933D
:10065000420150934301609344017093450166E267
:1006600071E086E491E00E94E502089526E040E012
:1006700052EC61E070E086E491E00E94C60162E025
:100680008EE00E947D0064E371E086E491E00E94C8
:10069000E5020E940C016093420170934301809334
:1006A0004401909345010E940C0160933E017093B8
:1006B0003F01809340019093410108951F920F9252
:1006C0000FB60F9211240F931F932F933F934F93C5
:1006D0005F936F937F938F939F93AF93BF9300919B
:1006E000E8011091E9012091EA013091EB0190912C
:1006F000E701B901A8014F5F5F4F6F4F7F4F83E064
:10070000890F8D3740F086E8890FB901A8014E5F47
:100710005F4F6F4F7F4F8093E7014093E801509305
:10072000E9016093EA017093EB018091E3019091FC
:10073000E401A091E501B091E6010196A11DB11D72
:100740008093E3019093E401A093E501B093E60167
:10075000BF91AF919F918F917F916F915F914F91D9
:100760003F912F911F910F910F900FBE0F901F90EF
:1007700018950E94D1000E9436030E94F7020E9441
:10078000B702FBCF6FEF7FEF81E090E00E9449015D
:1007900008951F920F920FB60F9211242F933F933B
:1007A0004F935F936F937F938F939F93AF93BF9379
:1007B000EF93FF9386E491E00E942802FF91EF916E
:1007C000BF91AF919F918F917F916F915F914F9169
:1007D0003F912F910F900FBE0F901F9018951F9271
:1007E0000F920FB60F9211242F938F939F93AF9375
:1007F000BF93EF93FF93E0915601F09157018081F1
:1008000082FD14C0E6E4F1E0A689B7892C91818DC0
:100810008F5F8F73928D891771F0DF01E18DF0E0AA
:10082000EA5BFE4F258F59968C9305C0E0915C01E1
:10083000F0915D018081FF91EF91BF91AF919F9108
:100840008F912F910F900FBE0F901F901895A1E2DE
:100850001A2EAA1BBB1BFD010DC0AA1FBB1FEE1F3A
:10086000FF1FA217B307E407F50720F0A21BB30B85
:10087000E40BF50B661F771F881F991F1A9469F701
:1008800060957095809590959B01AC01BD01CF015D
:100890000895EE0FFF1F0590F491E02D0994F89450
:0208A000FFCF88
:1008A200000000004A0219017C019402AF018D018F
:1008B200A1010D0A00427574746F6E2031207072AE
:1008C2006573736564004265666F726520697320A3
:0E08D2006E6F77005374617274207570210090
:00000001FF
